{
  "contractName": "ExpenseTracker",
  "abi": [
    {
      "inputs": [],
      "payable": false,
      "stateMutability": "nonpayable",
      "type": "constructor"
    },
    {
      "anonymous": false,
      "inputs": [
        {
          "indexed": false,
          "internalType": "address payable",
          "name": "payer",
          "type": "address"
        },
        {
          "indexed": false,
          "internalType": "address payable",
          "name": "recipient",
          "type": "address"
        },
        {
          "indexed": false,
          "internalType": "uint256",
          "name": "amount",
          "type": "uint256"
        }
      ],
      "name": "MoneySent",
      "type": "event"
    },
    {
      "constant": true,
      "inputs": [],
      "name": "name",
      "outputs": [
        {
          "internalType": "string",
          "name": "",
          "type": "string"
        }
      ],
      "payable": false,
      "stateMutability": "view",
      "type": "function"
    },
    {
      "constant": true,
      "inputs": [
        {
          "internalType": "uint256",
          "name": "",
          "type": "uint256"
        }
      ],
      "name": "transactions",
      "outputs": [
        {
          "internalType": "address payable",
          "name": "payer",
          "type": "address"
        },
        {
          "internalType": "address payable",
          "name": "recipient",
          "type": "address"
        },
        {
          "internalType": "uint256",
          "name": "amount",
          "type": "uint256"
        }
      ],
      "payable": false,
      "stateMutability": "view",
      "type": "function"
    },
    {
      "constant": false,
      "inputs": [
        {
          "internalType": "address payable",
          "name": "recipient",
          "type": "address"
        }
      ],
      "name": "sendMoney",
      "outputs": [],
      "payable": true,
      "stateMutability": "payable",
      "type": "function"
    }
  ],
  "bytecode": "0x608060405234801561001057600080fd5b506040518060400160405280600f81526020017f457870656e736520547261636b657200000000000000000000000000000000008152506000908051906020019061005c929190610062565b50610107565b828054600181600116156101000203166002900490600052602060002090601f016020900481019282601f106100a357805160ff19168380011785556100d1565b828001600101855582156100d1579182015b828111156100d05782518255916020019190600101906100b5565b5b5090506100de91906100e2565b5090565b61010491905b808211156101005760008160009055506001016100e8565b5090565b90565b61048f806101166000396000f3fe6080604052600436106100345760003560e01c806306fdde0314610039578063338ccd78146100c95780639ace38c21461010d575b600080fd5b34801561004557600080fd5b5061004e6101c2565b6040518080602001828103825283818151815260200191508051906020019080838360005b8381101561008e578082015181840152602081019050610073565b50505050905090810190601f1680156100bb5780820380516001836020036101000a031916815260200191505b509250505060405180910390f35b61010b600480360360208110156100df57600080fd5b81019080803573ffffffffffffffffffffffffffffffffffffffff169060200190929190505050610260565b005b34801561011957600080fd5b506101466004803603602081101561013057600080fd5b81019080803590602001909291905050506103ce565b604051808473ffffffffffffffffffffffffffffffffffffffff1673ffffffffffffffffffffffffffffffffffffffff1681526020018373ffffffffffffffffffffffffffffffffffffffff1673ffffffffffffffffffffffffffffffffffffffff168152602001828152602001935050505060405180910390f35b60008054600181600116156101000203166002900480601f0160208091040260200160405190810160405280929190818152602001828054600181600116156101000203166002900480156102585780601f1061022d57610100808354040283529160200191610258565b820191906000526020600020905b81548152906001019060200180831161023b57829003601f168201915b505050505081565b3373ffffffffffffffffffffffffffffffffffffffff168173ffffffffffffffffffffffffffffffffffffffff1614156102e5576040517f08c379a00000000000000000000000000000000000000000000000000000000081526004018080602001828103825260228152602001806104396022913960400191505060405180910390fd5b8073ffffffffffffffffffffffffffffffffffffffff166108fc349081150290604051600060405180830381858888f1935050505015801561032b573d6000803e3d6000fd5b507fbc8f5a5cb90bc33d83a08f0663beb02c65e4c51522ef0c8230d36370088a0a19338234604051808473ffffffffffffffffffffffffffffffffffffffff1673ffffffffffffffffffffffffffffffffffffffff1681526020018373ffffffffffffffffffffffffffffffffffffffff1673ffffffffffffffffffffffffffffffffffffffff168152602001828152602001935050505060405180910390a150565b60016020528060005260406000206000915090508060000160009054906101000a900473ffffffffffffffffffffffffffffffffffffffff16908060010160009054906101000a900473ffffffffffffffffffffffffffffffffffffffff1690806002015490508356fe52657175697265207061796572206973206e6f742074686520726563697069656e74a265627a7a723158203fcc94f1489cdc000e94870bc082fb540de42315ba6ef92c9b4391a094cb22c164736f6c63430005100032",
  "source": "pragma solidity >=0.4.21 <0.7.0;\n\ncontract ExpenseTracker {\n    string public name;\n    mapping(uint => Transaction) public transactions;\n\n    struct Transaction {\n        address payable payer;\n        address payable recipient;\n        uint amount;\n    }\n\n    event MoneySent(\n        address payable payer,\n        address payable recipient,\n        uint amount\n    );\n\n    constructor() public {\n        name = \"Expense Tracker\";\n    }\n\n    function sendMoney(address payable recipient) public payable {\n        require(recipient != msg.sender, \"Require payer is not the recipient\");\n\n        recipient.transfer(msg.value);\n\n        emit MoneySent(msg.sender, recipient, msg.value);\n    }\n}\n\n// contract ExpenseTracker {\n//     string public name;\n//     uint public productCount = 0;\n//     mapping(uint => Product) public products;\n\n//     struct Product {\n//         uint id;\n//         string name;\n//         uint price;\n//         address payable owner;\n//         bool purchased;\n//     }\n\n//     event ProductCreated(\n//         uint id,\n//         string name,\n//         uint price,\n//         address payable owner,\n//         bool purchased\n//     );\n\n//     event ProductPurchased(\n//         uint id,\n//         string name,\n//         uint price,\n//         address payable owner,\n//         bool purchased\n//     );\n\n//     constructor() public {\n//         name = \"Dapp University Marketplace\";\n//     }\n\n//     function createProduct(string memory _name, uint _price) public {\n//         // Require a valid name\n//         require(bytes(_name).length > 0);\n//         // Require a valid price\n//         require(_price > 0);\n//         // Increment product count\n//         productCount ++;\n//         // Create the product\n//         products[productCount] = Product(productCount, _name, _price, msg.sender, false);\n//         // Trigger an event\n//         emit ProductCreated(productCount, _name, _price, msg.sender, false);\n//     }\n\n//     function purchaseProduct(uint _id) public payable {\n//         // Fetch the product\n//         Product memory _product = products[_id];\n//         // Fetch the owner\n//         address payable _seller = _product.owner;\n//         // Make sure the product has a valid id\n//         require(_product.id > 0 && _product.id <= productCount);\n//         // Require that there is enough Ether in the transaction\n//         require(msg.value >= _product.price);\n//         // Require that the product has not been purchased already\n//         require(!_product.purchased);\n//         // Require that the buyer is not the seller\n//         require(_seller != msg.sender);\n//         // Transfer ownership to the buyer\n//         _product.owner = msg.sender;\n//         // Mark as purchased\n//         _product.purchased = true;\n//         // Update the product\n//         products[_id] = _product;\n//         // Pay the seller by sending them Ether\n//         _seller.transfer(msg.value);\n//         // Trigger an event\n//         emit ProductPurchased(productCount, _product.name, _product.price, msg.sender, true);\n//     }\n// }",
  "sourcePath": "/Users/zelong/文稿/Learning Materials/NYU/2020Spring/Cloud Computing/Homework/Course Porject/Project 2/ExpenseTrackerApp/contracts/ExpenseTracker.sol",
  "compiler": {
    "name": "solc",
    "version": "0.5.16+commit.9c3226ce.Emscripten.clang"
  },
  "schemaVersion": "3.1.0",
  "updatedAt": "2020-05-09T21:22:22.462Z",
  "devdoc": {
    "methods": {}
  },
  "userdoc": {
    "methods": {}
  }
}